:10092D0044757479204379636C65002E303000492D
:0E093D006E76616C6964204E756D62657200A5
:0F09B100758910758CB7758AFDD28C75A8822256
:03000B0002094B9C
:10094B00C0E0B2A130A109E515F58C85168A8007A8
:0A095B00E50CF58C850D8AD0E03222
:08073E008F248E238D228C21F3
:10074600752548752602AC25AD26E41201B9E4FBF1
:10075600FA79C87842120117AB24AA23A922A82144
:1007660012000E1201F28E158F16C3E5269516F5A8
:100776000DE5259515F50CC374FF9516F51674FF52
:100786009515F515C374FF950DF50D74FF950CF5CC
:010796000C56
:01079700223F
:04090C007FFA7E00F0
:10091000E4FDEDC39FE49E5013C295E4FC0CBC645F
:0C092000FCD295E4FC0CBC64FC0D80E6ED
:01092C0022A8
:1004BD00C297D296D295D294209309209306120911
:1004CD000C7F372220920920920612090C7F3822C8
:1004DD0020910920910612090C7F392220900920C4
:1004ED00900612090C7F2F22D297C296D295D294E4
:1004FD0020930920930612090C7F342220920920A3
:10050D00920612090C7F35222091092091061209BD
:10051D000C7F362220900920900612090C7F2A228A
:10052D00D297D296C295D2942093092093061209A0
:10053D000C7F312220920920920612090C7F322263
:10054D0020910920910612090C7F33222090092059
:10055D00900612090C7F2D22D297D296D295C29475
:10056D0020933E7F0A7E001208C67F0112098D7FFF
:10057D000A7E001208C67F8012098D7F0A7E001246
:10058D0008C67BFF7A09792D1207D97F0A7E0012E2
:10059D0008C67FC112098D7F0A7E001208C63093EE
:1005AD00FD20920920920612090C7F30222091091C
:1005BD0020910612090C7F3D2220900920900612F1
:0A05CD00090C7F2B22D2940204BD1A
:10067900EF24D0B40A00505C90068F75F003A4C52E
:100689008325F0C583730206AD0206B10206B602E0
:1006990006BB0206C00206C50206CA0206CF02064A
:1006A900D40206D9E4FEFF227E007F01227E007F6C
:1006B90002227E007F03227E007F04227E007F05C6
:1006C900227E007F06227E007F07227E007F08228D
:0506D9007E007F0922F4
:10034B001209657BFF7A09792D1207D91209B1C2FF
:10035B0095E4F513F514F5171204BD740E2517F873
:10036B00A607740E2517F8E6FF1206798E088F097B
:10037B00E51725E02418F8A60808A609E51725E0D7
:10038B002418F8E6FA08E6FBE51704FD7525017F4E
:10039B00021207980514E51470020513740E251745
:1003AB00F8E6B42B0AE5141514700D151380090526
:1003BB0017E517C3940440A0D3E5149400E51394F8
:1003CB0000500DE5149403E5139400400302047DE3
:1003DB00E51464014513701E8518118519127525D6
:1003EB0001AB12AA117D017F021207987BFF7A09DC
:1003FB0079387D028077E51464024513702BAE18B3
:10040B00AF19FC7D0A1202A0E51B2FF512E51A3E6F
:10041B00F511752502AB12FA7D017F021207987B4D
:10042B00FF7A0979387D038044E514640345137022
:10043B0041AE1AAF1BFC7D0A1202A0AA06AB07AE97
:10044B0018AF197D641202A0EF2BFFEE3AFEE51DEB
:10045B002FF512E51C3EF511752503AB12FA7D0144
:10046B007F021207987BFF7A0979387D047F02128D
:10047B0008A0D3E5129464E51194005022C3E51152
:10048B009400401B85110A85120BAC0AAD0BE412CC
:10049B0001B912073E7FF47E011208C602035C7D90
:1004AB00017F021209797BFF7A09793C1207D90285
:0204BB00035CE0
:100965007F3812098D7F0C12098D7F0112098D7F49
:040975008002098D66
:10098D008F80C2A5C2A6120854C2A77F0A7E00029C
:02099D00085AF6
:10099F008F80C2A5D2A6120854C2A77F0A7E00027A
:0209AF00085AE4
:0607D9008B218A22892316
:1007DF00E4F524F525AB21AA22A9238525828524BA
:1007EF0083120273FF600D12099F0525E52570E541
:0407FF00052480E16C
:0108030022D2
:10097900EF7007ED2480F5278005ED24C0F527AF3A
:040989002702098DAB
:06085400D2A77F0A7E001E
:10085A00E4FDFCC3ED9FEC9E5015E4FBFA0BBB00D4
:0F086A00010AEB64704A70F50DBD00010C80E4CB
:01087900225C
:10087A00E4FDFCEFFBC3ED9BEC94005018758D4B27
:10088A00758BFDC28FD28E308FFDC28FC28E0DBD89
:05089A0000010C80DEEE
:01089F002236
:1008C600E4FDFCC3ED9FEC9E5018758CFC758A19EF
:1008D600C28DD28C308DFDC28DC28C0DBD00010C37
:0208E60080E1AF
:0108E80022ED
:050003007F0102098DE0
:08082D008E278F288C298D2AEB
:100835007F017E00E4FBEBC3952AE5296480F8740B
:0E0845008098500AAC27AD281202A00B80E864
:010853002282
:040798008A238B2401
:10079C00120979852526E526D39400402FE52624D9
:1007AC00FFFDE434FFFC7F0A7E0012082DAC23AD64
:1007BC0024CFCDCFCECCCE1203077C007D0A120302
:0C07CC0007ED2430FF12099F152680CA9B
:0107D80022FE
:0A09CC008B36120979AF3602099F3D
:0608A0008B218A2289234E
:1008A600120979E4F524AB21AA22A92385248275AD
:0F08B6008300120273FF600712099F052480E779
:0108C5002210
:1008E9007FC012098DE4F51EF51F7F2012099F05AF
:1008F9001FE51F7002051EC39410E51E64809480D5
:0209090040E8C4
:01090B0022C9
:020804008F3330
:100806007FC012098DE4F534F535C3E535953374AB
:1008160080F8653498500F7F2012099F0535E5351D
:0608260070E8053480E4D7
:01082C0022A9
:0909D600566F6C746167653A000C
:1006DE00E4F537C2B6C2B5C2B6D2B4D2B6C2B6A26D
:1006EE000292B4D2B6C2B6A20192B4D2B6C2B6A229
:1006FE000092B4D2B6C2B6D2B4D2B6C2B6D2B4D2C8
:10070E00B6C2B6D2B4D2B6C2B6D2B4D2B6C2B67F22
:10071E000AFE1208C6E4FFE53725E0F537D2B6C269
:0F072E00B6A2B7E43342370FBF08ECD2B5AF37EE
:01073D002299
:1005D700C200D201D2021206DEAC07E41201BE8FBE
:1005E700328E318D308C2F7FF47E011208C67FA1A9
:1005F7007EA07DA07C3CAB32AA31A930A82F120087
:100607000E8F2E8E2D8D2C8C2B7BFF7A0979D6E4BD
:10061700FD7F011208A0AF2EAE2DAD2CAC2B120121
:10062700F2AB07AA067525017D0A7F011207987BA1
:100637002E7D0B7F011209CCE4FFFE7D7A7C44AB53
:100647002EAA2DA92CA82B12000E1201F27C037DD5
:10065700E81202B2AA04AB057525037D0C7F0112CF
:1006670007987B567D0F7F011209CC7FE87E030236
:0206770008C6B3
:10000E00EC4D6011E8497017ED33EC3304600DE4EC
:10001E00FCFFFEFD22E933E8330470F802025E12A3
:10002E00022958046009E4CC2481500628500902A4
:10003E000268284003020265C0E0EB4A7044B980B2
:10004E0006D0E0FB020254EF4E701CBD8008EBFFA1
:10005E00EAFEE9FD80EBE98DF0A4FEE5F00200F783
:10006E00E9CDF9EAFEEBFFEF89F0A4FCE5F0CE89CD
:10007E00F0A42EFFE435F0CD89F0A42DFEE435F08A
:10008E008067EF4E7005BD80D780C3EF8BF0A4ACB8
:10009E00F0EE8BF0A42CFCE435F0F8EF8AF0A42CF3
:1000AE00E5F038FCE433CB8DF0A42CFCE5F03BF806
:1000BE00EE8AF0A42CFCE5F038F8E433CF89F0A4F6
:1000CE002CFCE5F038CF3400CE89F0A42FFFE5F0FC
:1000DE003EFEE433C98DF0A42EFEE5F039CD8AF054
:1000EE00A42FFFE5F03EFEE43DFD33D0E0FB5007CC
:1000FE000BBB000F020268EC2CFCEF33FFEE33FE5D
:06010E00ED33FD0202408A
:10011400020268EC5D046005E85904700302025EA3
:10012400120229580460F6EC4860F2EC7004FDFEFB
:10013400FF22C860DB2481C85009C39860025006BE
:100144000202659850CAF582E9294B4A7005AB82D0
:1001540002025475F0007C1A7880C3EF9BEE9AED8E
:1001640099400DC3EF9BFFEE9AFEED99FDE842F036
:10017400DC23ACF0D0E0FFD0E0FED0E0FDAB822089
:10018400E7101BEB60BAEC2CFCEF33FFEE33FEED13
:1001940033FD020240E803F830E705C0F075F000D3
:1001A400EF2FFFEE33FEED33FD40B830E7C280AAF7
:1001B40075F020800E75F010800575F0087D007EC6
:1001C400007F003392D530D50312033DEC33401049
:1001D400EF33FFEE33FEED33FDEC33FCD5F0ED22CF
:0E01E400E5F0247EA2D513CC92E7CDCEFF220B
:1001F200EDD2E7CD33EC3392D524814006E4FFFE05
:10020200FDFC22FCE4CFCECDCC24E0501174FF8063
:10021200EDC3CC13CCCD13CDCE13CECF13CF047000
:07022200F030D5DE02033DC0
:10022900E9D2E7C933E833F892D5EDD2E7CD33EC1B
:0702390033FC5002B2D52294
:10024000EC30E7100FBF000C0EBE00080DBD00041F
:100250000BEB6014A2D5EB13FCED92E7FD2274FFCB
:10026000FCFDFEFF22E480F8A2D574FF13FC7D8024
:03027000E480EF38
:030000000209C032
:0C09C000787FE4F6D8FD75813702034B08
:10027300BB010CE58229F582E5833AF583E0225040
:1002830006E92582F8E622BBFE06E92582F8E2228A
:0D029300E58229F582E5833AF583E49322A4
:1002A000EF8DF0A4A8F0CF8CF0A428CE8DF0A42E72
:0202B000FE222C
:1002B200BC000BBE0029EF8DF084FFADF022E4CC30
:1002C200F875F008EF2FFFEE33FEEC33FCEE9DECF9
:1002D200984005FCEE9DFE0FD5F0E9E4CEFD22ED3F
:1002E200F8F5F0EE8420D21CFEADF075F008EF2F89
:1002F200FFED33FD4007985006D5F0F222C398FD7A
:050302000FD5F0EA2216
:10030700C2D5EC30E709B2D5E4C39DFDE49CFCEE11
:1003170030E715B2D5E4C39FFFE49EFE1202B2C3D5
:10032700E49DFDE49CFC80031202B230D507C3E4D0
:060337009FFFE49EFE2280
:0E033D00C3E49FFFE49EFEE49DFDE49CFC22D1
:00000001FF
