:090BF700566F6C746167653A00E9
:10097F00E4F52DC2B6C2B5C2B6D2B4D2B6C2B6A2D3
:10098F000292B4D2B6C2B6A20192B4D2B6C2B6A285
:10099F000092B4D2B6C2B6D2B4D2B6C2B6D2B4D224
:1009AF00B6C2B6D2B4D2B6C2B6D2B4D2B6C2B67F7F
:1009BF000AFE120B38E4FFE52D25E0F52DD2B6C265
:0F09CF00B6A2B7E433422D0FBF08ECD2B5AF2D5F
:0109DE0022F6
:1008DB00C200D201D20212097FAC07E412032F8FA0
:1008EB002C8E2B8D2A8C297FA17EA07DA07C3CABEE
:1008FB002CAA2BA92AA8291201068F288E278D2610
:10090B008C257BFF7A0B79F7E4FD7F02120AC8AFC7
:10091B0028AE27AD26AC25120363AB07AA067539A3
:10092B00017D0A7F02120A377B2E7D0B7F02120B91
:10093B00EDE4FFFE7D7A7C44AB28AA27A926A825E7
:10094B001201061203637C037DE812043CAA04AB7C
:10095B00057539037D0C7F02120A377B567D0F7F9D
:10096B0002120BED7FE87E03120B38AF28AE27ADDA
:03097B0026AC2582
:01097E002256
:100B3800E4FDFCC3ED9FEC9E5018758DFC758B1978
:100B4800C28FD28E308FFDC28FC28E0DBD00010CB8
:020B580080E13A
:010B5A002278
:060B5B00C2A5EB54F0FFFF
:100B6100EFA2E49284A2E59285A2E692863392876F
:0C0B7100D2A77F047E00120B38C2A7221E
:0F0BB700AB07C2A6120B5BEBC454F0FF020B613D
:0F0BC600AB07D2A6120B5BEBC454F0FF020B611E
:100AEE008B468A478948AB46AA47A9481203E46059
:100AFE00130548E5487002054714F91203E4FF1286
:050B0E000BC680E2228D
:100B7D007F647E00120B387F02120BB77F28120B99
:100B8D00B77F0C120BB77F01120BB77F80020BB72B
:040B13007E007C00E4
:100B17008E448F45E545640145447005ED2480808A
:100B27000BE545640245447007ED24C0FF120BB77F
:010B3700229B
:080AA1008E3A8F3B8C3C8D3D29
:100AA9007F017E00E4FBEBC3953DE53C6480F8746F
:0E0AB9008098500AAC3AAD3B12042A0B80E83C
:010AC700220C
:040A37008A378B3837
:100A3B00120B13AA39EAD39400402DEA24FFFDE4EC
:100A4B0034FFFC7F0A7E00120AA1AC37AD38CFCD44
:100A5B00CFCECCCE12043C7C007D0A12043CED249C
:080A6B0030FF120BC61A80CD0A
:010A73002260
:0A0BED00AA03120B13AF02020BC69D
:060AC8008B2D8A2E892F00
:100ACE00120B13E4F530AB2DAA2EA92F85308275AB
:0F0ADE0083001203FDFF6007120BC6053080E78F
:010AED0022E6
:080746008F288E278D268C25DB
:10074E001203638E2B8F2CAC2BAD2CEC12032AA82C
:10075E0004A905AA06AB07AF28AE27AD26AC251215
:10076E0000118F348E338D328C31753901AB2CAA3A
:10077E002B7D0C7F01120A37E52A240CFD7B2E7F80
:10078E0001120BED7F017E00900000C3E582952AD9
:10079E00E5296480F8E583648098500A7C007D0A20
:1007AE0012042AA380E5AD07AC06EC12032AAB3483
:1007BE00AA33A932A8311201061203638E2D8F2E91
:1007CE00852983852A82D3E5829400E5836480940B
:1007DE0080403CAE2DAF2E7C007D0A1204918C2FF2
:1007EE008D30E52A240CAE822EFD753901AB30AA70
:1007FE002F7F01120A37AE2DAF2E7C007D0A120418
:0F080E00918E2D8F2EE58215827002158380B793
:01081D0022B8
:100A7400447574794379636C6500566F6C7461676F
:100A8400653A00447574794379636C653A00496E3C
:0D0A940076616C6964204E756D62657200BC
:0C0BD500758902758C17D28C75A88222DD
:03000B00020B9D48
:100B9D00C0E0B2A130A109E50CF58C850D8A800766
:0A0BAD00E50AF58C850B8AD0E032D2
:0809DF008F288E278D268C2540
:1009E700752900752AE8AC29AD2AE412032AE4FB2D
:1009F700FA79C8784212020FAB28AA27A926A82598
:100A07001201061203638E0C8F0DC3E52A950DF5AF
:100A17000BE529950CF50AC374FF950DF50DE495C3
:0F0A27000CF50CC374FF950BF50BE4950AF50A5B
:010A3600229D
:10063500E4F544C297D296D295D294209305754499
:10064500378016209205754438800E209105754433
:1006550039800620900375442FD297C296D295D241
:100665009420930575443480162092057544358091
:100675000E209105754436800620900375442ED2D0
:1006850097D296C295D29420930575443180162051
:100695009205754432800E209105754433800620FD
:1006A500900375442DD297D296D295C29420935437
:1006B5007F0A7E00120B387F01120BB77F0A7E007E
:1006C500120B387F80120BB77F0A7E00120B387B26
:1006D500FF7A0A7974120AEE7F0A7E00120B387FC0
:1006E500C0120BB77F0A7E00120B387BFF7A0A799E
:1006F5007E120AEE7F0A7E00120B387F107E2712CB
:100705000B388016209205754430800E20910575B2
:10071500443D800620900375442BE5447003020692
:1007250035654570030206357F107E27120B38307C
:1007350093FD3092FA3091F73090F4854445AF44FB
:010745002291
:0D04D500E4F531F532F533F534F535F53643
:1004E2001206358F43E543643D6066E543642E7032
:1004F20029D3E5329400E53164809480401CE534D0
:10050200453370160532E53270020531142425F8A0
:10051200A6437533007534018029E543C394304006
:10052200BFE543D3943950B8C3E532940AE5316448
:1005320080948050AB0532E53270020531142425D7
:0F054200F8A643E532240BFDAB437F01120BED0E
:10055100808F74252532F8E4F6F53EF53DF53CF53E
:100561003B753ACD7539CC7538CC75373DF53FF5CE
:1005710040F541F542F52FF530C3E5309532E531CF
:100581006480F8E52F648098507374252530F8E66F
:10059100FFB42E087535007536018056EF3395E0AE
:1005A100FEEF24D0FFEE34FFAB07FAE53645357098
:1005B10014AE3FAF40FC7D0A12042AEF2BF540EE4A
:1005C1003AF53F802DAE41AF427C007D0A12042AEC
:1005D100EF2BF542EE3AF541AC35AD36EC12032A7C
:1005E1007BCD7ACC79CC783D1201061203638E352E
:1005F1008F360530E5307002052F02057AAC41AD2A
:1006010042EC12032AAB3AAA39A938A837120106DB
:10061100C004C005C006C007AC3FAD40EC12032AC0
:10062100D003D002D001D0001200158F3E8E3D8D37
:030631003C8C3BC3
:0106340022A3
:10081E00120B7D120BD5C2957BFF7A0A7987E4FD08
:10082E007F01120AC87BFF7A0A797EE4FD7F0212ED
:10083E000AC81204D58F248E238D228C21E4FFFE4C
:10084E00FDFCAB24AA23A922A8211202AC4069E424
:10085E00FFFE7DA07C40AB24AA23A922A821120270
:10086E00AC60025053AF24AE23AD22AC21752900EB
:10087E00752A01120746AF24AE23AD22AC21120316
:10088E00638E088F09AC08AD09E412032AE4FBFA63
:10089E0079C87842120106E4FBFA79A07840120278
:1008AE000F1209DF7FE87E03120B381208DB7FF48C
:1008BE007E01120B38020840E4FDFC7F01FE120B94
:0D08CE00177BFF7A0A7992120AEE020840A9
:10000E000203CFE86480F8E933E83360110460F04E
:10001E00ED33EC337009E8FCE9FDEAFEEBFF220458
:10002E0060DED3EB9FEA9EE99DE8C2E78CF0C2F753
:10003E0095F0400CE8CCF8E9CDF9EACEFAEBCFFB1F
:10004E0012039A85D0F05804700320D5B3E80470DB
:10005E00075002B2D50203D992D5EC0460F7E4CC76
:10006E00C0E0C398F8603B94186008400DD0E0FBE8
:10007E000203B1E4FBFAC9FC8028E830E406E4C9C7
:10008E00FBE4CAFCE830E305E4C9CACBFCE854073C
:10009E006010F8C3E913F9EA13FAEB13FBEC13FC47
:1000AE00D8F130F52FC3E49CFCEF9BFFEE9AFEEDEA
:1000BE0099FDD0E0FBEF4E4D4C701222DB03020394
:1000CE00D6EC2CFCEF33FFEE33FEED33FDED30E7D7
:1000DE00EB0203B1EF2BFFEE3AFEED39FDD0E0FB64
:1000EE0050130BBB00030203D9ED13FDEE13FEEF0D
:0800FE0013FFEC13FC0203B137
:10010600EC4D6011E8497017ED33EC3304600DE4F3
:10011600FCFFFEFD22E933E8330470F80203CF1238
:10012600039A58046009E4CC248150062850090239
:1001360003D92840030203D6C0E0EB4A7044B980D5
:1001460006D0E0FB0203C5EF4E701CBD8008EBFF36
:10015600EAFEE9FD80EBE98DF0A4FEE5F00201EF91
:10016600E9CDF9EAFEEBFFEF89F0A4FCE5F0CE89D4
:10017600F0A42EFFE435F0CD89F0A42DFEE435F091
:100186008067EF4E7005BD80D780C3EF8BF0A4ACBF
:10019600F0EE8BF0A42CFCE435F0F8EF8AF0A42CFA
:1001A600E5F038FCE433CB8DF0A42CFCE5F03BF80D
:1001B600EE8AF0A42CFCE5F038F8E433CF89F0A4FD
:1001C6002CFCE5F038CF3400CE89F0A42FFFE5F003
:1001D6003EFEE433C98DF0A42EFEE5F039CD8AF05B
:1001E600A42FFFE5F03EFEE43DFD33D0E0FB5007D3
:1001F6000BBB000F0203D9EC2CFCEF33FFEE33FEF2
:06020600ED33FD0203B11F
:10020C000203D9EC5D046005E8590470030203CFC6
:10021C0012039A580460F6EC4860F2EC7004FDFE90
:10022C00FF22C860DB2481C85009C39860025006C5
:10023C000203D69850CAF582E9294B4A7005AB8265
:10024C000203C575F0007C1A7880C3EF9BEE9AED23
:10025C0099400DC3EF9BFFEE9AFEED99FDE842F03D
:10026C00DC23ACF0D0E0FFD0E0FED0E0FDAB822090
:10027C00E7101BEB60BAEC2CFCEF33FFEE33FEED1A
:10028C0033FD0203B1E803F830E705C0F075F00068
:10029C00EF2FFFEE33FEED33FD40B830E7C280AAFE
:1002AC0074F8CC6480CCC86480C8F58204604FC3F9
:1002BC00EB9FF5F0EA9E42F0E99D42F0E89C45F098
:1002CC00603C501DE5825FFFE582D313CB5BCBF422
:1002DC002B5582FB50280ABA002409B9002008804B
:1002EC001DE5825BFBE582D313CF5FCFF4C3132FE5
:1002FC005582FF50090EBE00050DBD00010CC3EB6D
:10030C009FF5F0EA9E42F0E99D42F0E89C45F060D2
:09031C0007CC4820E701B3EC22F4
:1003250075F020800E75F010800575F0087D007E53
:10033500007F003392D530D5031204C7EC3340104B
:10034500EF33FFEE33FEED33FDEC33FCD5F0ED225C
:0E035500E5F0247EA2D513CC92E7CDCEFF2298
:10036300EDD2E7CD33EC3392D524814006E4FFFE92
:10037300FDFC22FCE4CFCECDCC24E0501174FF80F1
:10038300EDC3CC13CCCD13CDCE13CECF13CF04708E
:07039300F030D5DE0204C7C3
:10039A00E9D2E7C933E833F892D5EDD2E7CD33ECA9
:0703AA0033FC5002B2D52222
:1003B100EC30E7100FBF000C0EBE00080DBD0004AD
:1003C1000BEB6014A2D5EB13FCED92E7FD2274FF59
:1003D100FCFDFEFF22E480F8A2D574FF13FC7D80B2
:0303E100E480EFC6
:03000000020BE10F
:0C0BE100787FE4F6D8FD75814802081EFC
:1003E400BB010689828A83E0225002E722BBFE0217
:0903F400E32289828A83E493224A
:1003FD00BB010CE58229F582E5833AF583E02250B5
:10040D0006E92582F8E622BBFE06E92582F8E222FE
:0D041D00E58229F582E5833AF583E4932218
:10042A00EF8DF0A4A8F0CF8CF0A428CE8DF0A42EE6
:02043A00FE22A0
:10043C00BC000BBE0029EF8DF084FFADF022E4CCA4
:10044C00F875F008EF2FFFEE33FEEC33FCEE9DEC6D
:10045C00984005FCEE9DFE0FD5F0E9E4CEFD22EDB3
:10046C00F8F5F0EE8420D21CFEADF075F008EF2FFD
:10047C00FFED33FD4007985006D5F0F222C398FDEE
:05048C000FD5F0EA228B
:10049100C2D5EC30E709B2D5E4C39DFDE49CFCEE86
:1004A10030E715B2D5E4C39FFFE49EFE12043CC3BE
:1004B100E49DFDE49CFC800312043C30D507C3E4B9
:0604C1009FFFE49EFE22F5
:0E04C700C3E49FFFE49EFEE49DFDE49CFC2246
:00000001FF
