:1008D90044757479204379636C65002E3030004982
:0E08E9006E76616C6964204E756D62657200FA
:0F091100758901758CB7758AFDD28C75A8822205
:03000B000208F7F1
:1008F700C0E0B2A130A109E515F58C85168A8007FD
:0A090700E50CF58C850D8AD0E03276
:080725008F248E238D228C210C
:10072D00752548752602AC25AD26E41201B9E4FB0A
:10073D00FA79C87842120117AB24AA23A922A8215D
:10074D0012000E1201F28E158F16C3E5269516F5C1
:10075D000DE5259515F50CC374FF9516F51674FF6B
:10076D009515F515C374FF950DF50D74FF950CF5E5
:01077D000C6F
:01077E002258
:040898007FFA7E0065
:10089C00E4FDEDC39FE49E5013C295E4FC0CBC64D4
:0C08AC00FCD295E4FC0CBC64FC0D80E662
:0108B800221D
:1004A400C297D296D295D29420930920930612082B
:1004B400987F37222092092092061208987F3822CA
:1004C4002091092091061208987F39222090092052
:1004D40090061208987F2F22D297C296D295D29472
:1004E4002093092093061208987F34222092092031
:1004F40092061208987F352220910920910612084D
:10050400987F36222090092090061208987F2A228C
:10051400D297D296C295D2942093092093061208BA
:10052400987F31222092092092061208987F322265
:100534002091092091061208987F332220900920E7
:1005440090061208987F2D22D297D296D295C29403
:1005540020933E7F0A7E001208537F011209207FF8
:100564000A7E001208537F801209207F0A7E00123F
:1005740008537BFF7A0879D91208097F0A7E001292
:1005840008537FC11209207F0A7E0012085330935A
:10059400FD2092092092061208987F3022209109AA
:1005A4002091061208987F3D22209009209006127F
:0A05B40008987F2B22D2940204A4C1
:10066000EF24D0B40A00505C90067675F003A4C560
:100670008325F0C5837302069402069802069D0244
:1006800006A20206A70206AC0206B10206B60206E0
:10069000BB0206C0E4FEFF227E007F01227E007FB7
:1006A00002227E007F03227E007F04227E007F05DF
:1006B000227E007F06227E007F07227E007F0822A6
:0506C0007E007F09220D
:10032E001208B97BFF7A0879D9120809120911C28D
:10033E0095E4F513F514F5171204A4740E2517F8A9
:10034E00A607740E2517F8E6FF1206608E088F09B1
:10035E00E51725E02418F8A60808A609E51725E0F4
:10036E002418F8E6FA08E6FBE51704FD7525017F6B
:10037E000212077F0514E51470020513740E25177B
:10038E00F8E6B42B0AE5141514700D151380090543
:10039E0017E517C3940440A0D3E5149400E5139415
:1003AE0000500DE5149403E513940040030204601D
:1003BE00E51464014513701E8518118519127525F3
:1003CE0001AB12AA117D017F0212077F7BFF7A0813
:1003DE0079E47D028077E51464024513702BAE1824
:1003EE00AF19FC7D0A1202B9E51B2FF512E51A3E74
:1003FE00F511752502AB12FA7D017F0212077F7B84
:10040E00FF7A0879E47D038044E514640345137094
:10041E0041AE1AAF1BFC7D0A1202B9AA06AB07AE9B
:10042E0018AF197D641202B9EF2BFFEE3AFEE51DEF
:10043E002FF512E51C3EF511752503AB12FA7D0161
:10044E007F0212077F7BFF7A0879E47D047F021218
:10045E0007E3D3E5129464E51194005022C3E5112D
:10046E009400401B85110A85120BAC0AAD0BE412E9
:10047E0001B91207257FF47E0112085302033F7D56
:10048E00017C007F027E001208327BFF7A0879E839
:06049E0012080902033FF1
:10085300E4FDFCC3ED9FEC9E5018758DFC758B1960
:10086300C28FD28E308FFDC28FC28E0DBD00010CA0
:0208730080E122
:010875002260
:06087600C2A5EB54F0FFE7
:10087C00EFA2E49284A2E59285A2E6928633928757
:0C088C00D2A77F047E00120853C2A722EE
:0F092000AB07C2A6120876EBC454F0FF02087CA6
:0F092F00AB07D2A6120876EBC454F0FF02087C87
:100809008B218A228923AB21AA22A9231202736090
:10081900130523E5237002052214F9120273FF124E
:05082900092F80E2220E
:1008B9007F647E001208537F021209207F281209E3
:1008C900207F0C1209207F011209207F8002092054
:04082E007E007C00CC
:100832008E268F27E527640145267005ED248080EA
:100842000BE527640245267007ED24C0FF1209203C
:010852002283
:0807BC008E268F278C288D2961
:1007C4007F017E00E4FBEBC39529E5286480F8747F
:0E07D4008098500AAC26AD271202B90B80E8BF
:0107E20022F4
:04077F008A238B241A
:1007830012082EAA25EAD39400402DEA24FFFDE4A3
:1007930034FFFC7F0A7E001207BCAC23AD24CFCD0F
:1007A300CFCECCCE1202CB7C007D0A1202CBED243D
:0807B30030FF12092F1A80CD5E
:0107BB00221B
:0A094A00AA0312082EAF0202092FC3
:0607E3008B218A2289230C
:1007E90012082EE4F524AB21AA22A92385248275B7
:0F07F900830012028CFF600712092F052480E78E
:0108080022CD
:09095400566F6C746167653A008E
:1006C500E4F51EC2B6C2B5C2B6D2B4D2B6C2B6A29F
:1006D5000292B4D2B6C2B6A20192B4D2B6C2B6A242
:1006E5000092B4D2B6C2B6D2B4D2B6C2B6D2B4D2E1
:1006F500B6C2B6D2B4D2B6C2B6D2B4D2B6C2B67F3C
:100705000AFE120853E4FFE51E25E0F51ED2B6C227
:0F071500B6A2B7E433421E0FBF08ECD2B5AF1E39
:0107240022B2
:1005BE00C200D201D2021206C5AC07E41201BE8FF0
:1005CE00318E308D2F8C2E7FF47E011208537FA139
:1005DE007EA07DA07C3CAB31AA30A92FA82E1200A4
:1005EE000E8F2D8E2C8D2B8C2A7BFF7A097954E45D
:1005FE00FD7F021207E3AF2DAE2CAD2BAC2A1201FC
:10060E00F2AB07AA067525017D0A7F0212077F7BD2
:10061E002E7D0B7F0212094AE4FFFE7D7A7C44ABED
:10062E002DAA2CA92BA82A12000E1201F27C037DF2
:10063E00E81202CBAA04AB057525037D0C7F0212CE
:10064E00077F7B567D0F7F0212094A7FE87E0302E9
:02065E0008533F
:10000E00EC4D6011E8497017ED33EC3304600DE4EC
:10001E00FCFFFEFD22E933E8330470F802025E12A3
:10002E00022958046009E4CC2481500628500902A4
:10003E000268284003020265C0E0EB4A7044B980B2
:10004E0006D0E0FB020254EF4E701CBD8008EBFFA1
:10005E00EAFEE9FD80EBE98DF0A4FEE5F00200F783
:10006E00E9CDF9EAFEEBFFEF89F0A4FCE5F0CE89CD
:10007E00F0A42EFFE435F0CD89F0A42DFEE435F08A
:10008E008067EF4E7005BD80D780C3EF8BF0A4ACB8
:10009E00F0EE8BF0A42CFCE435F0F8EF8AF0A42CF3
:1000AE00E5F038FCE433CB8DF0A42CFCE5F03BF806
:1000BE00EE8AF0A42CFCE5F038F8E433CF89F0A4F6
:1000CE002CFCE5F038CF3400CE89F0A42FFFE5F0FC
:1000DE003EFEE433C98DF0A42EFEE5F039CD8AF054
:1000EE00A42FFFE5F03EFEE43DFD33D0E0FB5007CC
:1000FE000BBB000F020268EC2CFCEF33FFEE33FE5D
:06010E00ED33FD0202408A
:10011400020268EC5D046005E85904700302025EA3
:10012400120229580460F6EC4860F2EC7004FDFEFB
:10013400FF22C860DB2481C85009C39860025006BE
:100144000202659850CAF582E9294B4A7005AB82D0
:1001540002025475F0007C1A7880C3EF9BEE9AED8E
:1001640099400DC3EF9BFFEE9AFEED99FDE842F036
:10017400DC23ACF0D0E0FFD0E0FED0E0FDAB822089
:10018400E7101BEB60BAEC2CFCEF33FFEE33FEED13
:1001940033FD020240E803F830E705C0F075F000D3
:1001A400EF2FFFEE33FEED33FD40B830E7C280AAF7
:1001B40075F020800E75F010800575F0087D007EC6
:1001C400007F003392D530D503120320EC33401066
:1001D400EF33FFEE33FEED33FDEC33FCD5F0ED22CF
:0E01E400E5F0247EA2D513CC92E7CDCEFF220B
:1001F200EDD2E7CD33EC3392D524814006E4FFFE05
:10020200FDFC22FCE4CFCECDCC24E0501174FF8063
:10021200EDC3CC13CCCD13CDCE13CECF13CF047000
:07022200F030D5DE020320DD
:10022900E9D2E7C933E833F892D5EDD2E7CD33EC1B
:0702390033FC5002B2D52294
:10024000EC30E7100FBF000C0EBE00080DBD00041F
:100250000BEB6014A2D5EB13FCED92E7FD2274FFCB
:10026000FCFDFEFF22E480F8A2D574FF13FC7D8024
:03027000E480EF38
:0300000002093EB4
:0C093E00787FE4F6D8FD75813102032EAD
:10027300BB010689828A83E0225002E722BBFE0289
:09028300E32289828A83E49322BC
:10028C00BB010CE58229F582E5833AF583E0225027
:10029C0006E92582F8E622BBFE06E92582F8E22271
:0D02AC00E58229F582E5833AF583E493228B
:1002B900EF8DF0A4A8F0CF8CF0A428CE8DF0A42E59
:0202C900FE2213
:1002CB00BC000BBE0029EF8DF084FFADF022E4CC17
:1002DB00F875F008EF2FFFEE33FEEC33FCEE9DECE0
:1002EB00984005FCEE9DFE0FD5F0E9E4CEFD22ED26
:1002FB00F8F5F0EE8420D21CFEADF075F008EF2F70
:10030B00FFED33FD4007985006D5F0F222C398FD60
:05031B000FD5F0EA22FD
:0E032000C3E49FFFE49EFEE49DFDE49CFC22EE
:00000001FF
