:0906F500566F6C746167653A00F0
:10046B00E4F510C2B6C2B5C2B6D2B4D2B6C2B6A209
:10047B000292B4D2B6C2B6A20192B4D2B6C2B6A29E
:10048B000092B4D2B6C2B6D2B4D2B6C2B6D2B4D23D
:10049B00B6C2B6D2B4D2B6C2B6D2B4D2B6C2B67F98
:1004AB000AFE120638E4FFE51025E0F510D2B6C2BD
:0F04BB00B6A2B7E43342100FBF08ECD2B5AF10B2
:0104CA00220F
:10032E00C200D201D20212046BAC07E41201BE8FDE
:10033E000F8E0E8D0D8C0C7FF47E011206387FA170
:10034E007EA07DA07C3CAB0FAA0EA90DA80C1200BE
:10035E000E8F0B8E0A8D098C087BFF7A0679F5E4D9
:10036E00FD7F021205C8AF0BAE0AAD09AC08120133
:10037E00F2AB07AA067514017D0A7F021205647B93
:10038E002E7D0B7F021206EBE4FFFE7D7A7C44ABE2
:10039E000BAA0AA909A80812000E1201F27C037D0D
:1003AE00E81202CBAA04AB057514037D0C7F021272
:1003BE0005647B567D0F7F021206EB7FE87E0302FB
:0203CE000638EF
:040003002E3030006B
:0C06C800758902758C17D28C75A88222EF
:03000B000206BB2F
:0D06BB00B2A130A10485288A3285268A323A
:0804CB008F0B8E0A8D098C08CD
:1004D300750C00750DE8AC0CAD0DE41201B9E4FB2D
:1004E300FA79C87842120117AB0BAA0AA909A8081E
:1004F30012000E1201F28E278F28C3E50D9528F501
:1005030026E50C9527F525C374FF9528F528E49572
:0F05130027F527C374FF9526F526E49525F525D2
:0105220022B6
:1003D00020B1417FE87E03120638C3E5229464E52C
:1003E000219400502C740A2522F522E43521F521B0
:1003F000751403AB22FA7D0A7F011205647BFF7A34
:100400000079037D0D7F011205C87FF47E0112067D
:100410003830B1FD20B0427F647E00120638D3E54B
:10042000229400E5219400402D74F62522F52274D3
:10043000FF3521F521751403AB22FA7D0A7F0112E5
:1004400005647BFF7A0079037D0D7F011205C87F6B
:10045000F47E0112063830B0FDAC21AD22E4120169
:0B046000B91204CB7FF47E01020638C5
:10063800E4FDFCC3ED9FEC9E5018758DFC758B6630
:10064800C28FD28E308FFDC28FC28E0DBD00010CBD
:0206580080E13F
:01065A00227D
:06065B00C2A5EB54F0FF04
:10066100EFA2E49284A2E59285A2E6928633928774
:0C067100D2A77F047E00120638C2A72228
:0F069D00AB07C2A612065BEBC454F0FF02066166
:0F06AC00AB07D2A612065BEBC454F0FF02066147
:1005EE008B088A09890AAB08AA09A90A1202736044
:1005FE0013050AE50A7002050914F9120273FF12B7
:05060E0006AC80E222B1
:10067D007F647E001206387F0212069D7F281206C7
:10068D009D7F0C12069D7F0112069D7F8002069DA7
:040613007E007C00E9
:100617008E158F16E516640145157005ED2480804B
:100627000BE516640245157007ED24C0FF12069D01
:0106370022A0
:0805A1008E158F168C178D18C2
:1005A9007F017E00E4FBEBC39518E5176480F874BE
:0E05B9008098500AAC15AD161202B90B80E8FE
:0105C7002211
:040564008A128B1359
:10056800120613AA14EAD39400402DEA24FFFDE4EE
:1005780034FFFC7F0A7E001205A1AC12AD13CFCD6B
:10058800CFCECCCE1202CB7C007D0A1202CBED245A
:0805980030FF1206AC1A80CD01
:0105A0002238
:0A06EB00AA03120613AF020206ACC8
:0605C8008B108A1189125C
:1005CE00120613E4F513AB10AA11A9128513827546
:0F05DE00830012028CFF60071206AC051380E742
:0105ED0022EB
:0B06E000447574794379636C653A003F
:1005230012067D1206C8E4F521F522751403AB22E9
:10053300AA217D0A7F01120564E4FDFC7F01FE12FE
:1005430006177BFF7A0679E01205EE1203D07FE8E7
:100553007E0312063812032E7FE87E0312063880CC
:01056300EAAD
:10000E00EC4D6011E8497017ED33EC3304600DE4EC
:10001E00FCFFFEFD22E933E8330470F802025E12A3
:10002E00022958046009E4CC2481500628500902A4
:10003E000268284003020265C0E0EB4A7044B980B2
:10004E0006D0E0FB020254EF4E701CBD8008EBFFA1
:10005E00EAFEE9FD80EBE98DF0A4FEE5F00200F783
:10006E00E9CDF9EAFEEBFFEF89F0A4FCE5F0CE89CD
:10007E00F0A42EFFE435F0CD89F0A42DFEE435F08A
:10008E008067EF4E7005BD80D780C3EF8BF0A4ACB8
:10009E00F0EE8BF0A42CFCE435F0F8EF8AF0A42CF3
:1000AE00E5F038FCE433CB8DF0A42CFCE5F03BF806
:1000BE00EE8AF0A42CFCE5F038F8E433CF89F0A4F6
:1000CE002CFCE5F038CF3400CE89F0A42FFFE5F0FC
:1000DE003EFEE433C98DF0A42EFEE5F039CD8AF054
:1000EE00A42FFFE5F03EFEE43DFD33D0E0FB5007CC
:1000FE000BBB000F020268EC2CFCEF33FFEE33FE5D
:06010E00ED33FD0202408A
:10011400020268EC5D046005E85904700302025EA3
:10012400120229580460F6EC4860F2EC7004FDFEFB
:10013400FF22C860DB2481C85009C39860025006BE
:100144000202659850CAF582E9294B4A7005AB82D0
:1001540002025475F0007C1A7880C3EF9BEE9AED8E
:1001640099400DC3EF9BFFEE9AFEED99FDE842F036
:10017400DC23ACF0D0E0FFD0E0FED0E0FDAB822089
:10018400E7101BEB60BAEC2CFCEF33FFEE33FEED13
:1001940033FD020240E803F830E705C0F075F000D3
:1001A400EF2FFFEE33FEED33FD40B830E7C280AAF7
:1001B40075F020800E75F010800575F0087D007EC6
:1001C400007F003392D530D503120320EC33401066
:1001D400EF33FFEE33FEED33FDEC33FCD5F0ED22CF
:0E01E400E5F0247EA2D513CC92E7CDCEFF220B
:1001F200EDD2E7CD33EC3392D524814006E4FFFE05
:10020200FDFC22FCE4CFCECDCC24E0501174FF8063
:10021200EDC3CC13CCCD13CDCE13CECF13CF047000
:07022200F030D5DE020320DD
:10022900E9D2E7C933E833F892D5EDD2E7CD33EC1B
:0702390033FC5002B2D52294
:10024000EC30E7100FBF000C0EBE00080DBD00041F
:100250000BEB6014A2D5EB13FCED92E7FD2274FFCB
:10026000FCFDFEFF22E480F8A2D574FF13FC7D8024
:03027000E480EF38
:030000000206D421
:0C06D400787FE4F6D8FD75813002052324
:10027300BB010689828A83E0225002E722BBFE0289
:09028300E32289828A83E49322BC
:10028C00BB010CE58229F582E5833AF583E0225027
:10029C0006E92582F8E622BBFE06E92582F8E22271
:0D02AC00E58229F582E5833AF583E493228B
:1002B900EF8DF0A4A8F0CF8CF0A428CE8DF0A42E59
:0202C900FE2213
:1002CB00BC000BBE0029EF8DF084FFADF022E4CC17
:1002DB00F875F008EF2FFFEE33FEEC33FCEE9DECE0
:1002EB00984005FCEE9DFE0FD5F0E9E4CEFD22ED26
:1002FB00F8F5F0EE8420D21CFEADF075F008EF2F70
:10030B00FFED33FD4007985006D5F0F222C398FD60
:05031B000FD5F0EA22FD
:0E032000C3E49FFFE49EFEE49DFDE49CFC22EE
:00000001FF
